{
  "_format": "hh-sol-artifact-1",
  "contractName": "SAFILuck",
  "sourceName": "contracts/SafiLuck.sol",
  "abi": [
    {
      "inputs": [
        {
          "internalType": "address",
          "name": "_ticketToken",
          "type": "address"
        },
        {
          "internalType": "uint256",
          "name": "_ticketPrice",
          "type": "uint256"
        },
        {
          "internalType": "uint16",
          "name": "_feeBps",
          "type": "uint16"
        },
        {
          "internalType": "address",
          "name": "_vault",
          "type": "address"
        }
      ],
      "stateMutability": "nonpayable",
      "type": "constructor"
    },
    {
      "anonymous": false,
      "inputs": [
        {
          "indexed": false,
          "internalType": "uint32",
          "name": "",
          "type": "uint32"
        }
      ],
      "name": "ClaimWindowSet",
      "type": "event"
    },
    {
      "anonymous": false,
      "inputs": [
        {
          "indexed": false,
          "internalType": "uint64",
          "name": "",
          "type": "uint64"
        },
        {
          "indexed": false,
          "internalType": "address",
          "name": "",
          "type": "address"
        },
        {
          "indexed": false,
          "internalType": "uint256",
          "name": "",
          "type": "uint256"
        }
      ],
      "name": "Claimed",
      "type": "event"
    },
    {
      "anonymous": false,
      "inputs": [
        {
          "indexed": false,
          "internalType": "uint64",
          "name": "",
          "type": "uint64"
        },
        {
          "indexed": false,
          "internalType": "bytes32",
          "name": "",
          "type": "bytes32"
        }
      ],
      "name": "Committed",
      "type": "event"
    },
    {
      "anonymous": false,
      "inputs": [
        {
          "indexed": false,
          "internalType": "uint32",
          "name": "",
          "type": "uint32"
        }
      ],
      "name": "DurationSet",
      "type": "event"
    },
    {
      "anonymous": false,
      "inputs": [
        {
          "indexed": false,
          "internalType": "uint64",
          "name": "",
          "type": "uint64"
        },
        {
          "indexed": false,
          "internalType": "address",
          "name": "",
          "type": "address"
        },
        {
          "indexed": false,
          "internalType": "uint256",
          "name": "",
          "type": "uint256"
        }
      ],
      "name": "ExtrasSelected",
      "type": "event"
    },
    {
      "anonymous": false,
      "inputs": [
        {
          "indexed": false,
          "internalType": "uint16",
          "name": "",
          "type": "uint16"
        }
      ],
      "name": "FeeSet",
      "type": "event"
    },
    {
      "anonymous": false,
      "inputs": [
        {
          "indexed": false,
          "internalType": "address",
          "name": "",
          "type": "address"
        }
      ],
      "name": "KeeperSet",
      "type": "event"
    },
    {
      "anonymous": false,
      "inputs": [
        {
          "indexed": false,
          "internalType": "address",
          "name": "",
          "type": "address"
        },
        {
          "indexed": false,
          "internalType": "uint256",
          "name": "",
          "type": "uint256"
        },
        {
          "indexed": false,
          "internalType": "uint256",
          "name": "",
          "type": "uint256"
        }
      ],
      "name": "RewardTokenAdded",
      "type": "event"
    },
    {
      "anonymous": false,
      "inputs": [
        {
          "indexed": false,
          "internalType": "uint64",
          "name": "",
          "type": "uint64"
        },
        {
          "indexed": false,
          "internalType": "uint256",
          "name": "",
          "type": "uint256"
        }
      ],
      "name": "RolledOver",
      "type": "event"
    },
    {
      "anonymous": false,
      "inputs": [
        {
          "indexed": false,
          "internalType": "uint64",
          "name": "",
          "type": "uint64"
        },
        {
          "indexed": false,
          "internalType": "uint64",
          "name": "",
          "type": "uint64"
        },
        {
          "indexed": false,
          "internalType": "uint64",
          "name": "",
          "type": "uint64"
        },
        {
          "indexed": false,
          "internalType": "uint256",
          "name": "",
          "type": "uint256"
        }
      ],
      "name": "RoundOpened",
      "type": "event"
    },
    {
      "anonymous": false,
      "inputs": [
        {
          "indexed": false,
          "internalType": "uint64",
          "name": "",
          "type": "uint64"
        },
        {
          "indexed": false,
          "internalType": "uint64",
          "name": "",
          "type": "uint64"
        }
      ],
      "name": "Sealed",
      "type": "event"
    },
    {
      "anonymous": false,
      "inputs": [
        {
          "indexed": false,
          "internalType": "address",
          "name": "",
          "type": "address"
        },
        {
          "indexed": false,
          "internalType": "uint256",
          "name": "",
          "type": "uint256"
        },
        {
          "indexed": false,
          "internalType": "uint256",
          "name": "",
          "type": "uint256"
        }
      ],
      "name": "ThresholdRangeSet",
      "type": "event"
    },
    {
      "anonymous": false,
      "inputs": [
        {
          "indexed": false,
          "internalType": "uint256",
          "name": "",
          "type": "uint256"
        }
      ],
      "name": "TicketPriceSet",
      "type": "event"
    },
    {
      "anonymous": false,
      "inputs": [
        {
          "indexed": false,
          "internalType": "uint64",
          "name": "",
          "type": "uint64"
        },
        {
          "indexed": false,
          "internalType": "address",
          "name": "",
          "type": "address"
        },
        {
          "indexed": false,
          "internalType": "uint256",
          "name": "",
          "type": "uint256"
        },
        {
          "indexed": false,
          "internalType": "uint256",
          "name": "",
          "type": "uint256"
        },
        {
          "indexed": false,
          "internalType": "uint256",
          "name": "",
          "type": "uint256"
        }
      ],
      "name": "TicketsBought",
      "type": "event"
    },
    {
      "anonymous": false,
      "inputs": [
        {
          "indexed": false,
          "internalType": "address",
          "name": "",
          "type": "address"
        }
      ],
      "name": "VaultSet",
      "type": "event"
    },
    {
      "anonymous": false,
      "inputs": [
        {
          "indexed": false,
          "internalType": "address",
          "name": "",
          "type": "address"
        }
      ],
      "name": "WNativeSet",
      "type": "event"
    },
    {
      "anonymous": false,
      "inputs": [
        {
          "indexed": false,
          "internalType": "uint64",
          "name": "",
          "type": "uint64"
        },
        {
          "indexed": false,
          "internalType": "address",
          "name": "",
          "type": "address"
        },
        {
          "indexed": false,
          "internalType": "uint256",
          "name": "",
          "type": "uint256"
        },
        {
          "indexed": false,
          "internalType": "uint256",
          "name": "",
          "type": "uint256"
        }
      ],
      "name": "WinnerDrawn",
      "type": "event"
    },
    {
      "inputs": [
        {
          "internalType": "address",
          "name": "t",
          "type": "address"
        },
        {
          "internalType": "uint256",
          "name": "minT",
          "type": "uint256"
        },
        {
          "internalType": "uint256",
          "name": "maxT",
          "type": "uint256"
        }
      ],
      "name": "addRewardToken",
      "outputs": [],
      "stateMutability": "nonpayable",
      "type": "function"
    },
    {
      "inputs": [
        {
          "internalType": "uint32",
          "name": "amount",
          "type": "uint32"
        }
      ],
      "name": "buyTickets",
      "outputs": [],
      "stateMutability": "nonpayable",
      "type": "function"
    },
    {
      "inputs": [],
      "name": "carryPool",
      "outputs": [
        {
          "internalType": "uint256",
          "name": "",
          "type": "uint256"
        }
      ],
      "stateMutability": "view",
      "type": "function"
    },
    {
      "inputs": [
        {
          "internalType": "uint64",
          "name": "roundId",
          "type": "uint64"
        }
      ],
      "name": "claim",
      "outputs": [],
      "stateMutability": "nonpayable",
      "type": "function"
    },
    {
      "inputs": [],
      "name": "claimWindowSec",
      "outputs": [
        {
          "internalType": "uint32",
          "name": "",
          "type": "uint32"
        }
      ],
      "stateMutability": "view",
      "type": "function"
    },
    {
      "inputs": [
        {
          "internalType": "bytes32",
          "name": "h",
          "type": "bytes32"
        }
      ],
      "name": "commit",
      "outputs": [],
      "stateMutability": "nonpayable",
      "type": "function"
    },
    {
      "inputs": [],
      "name": "currentRound",
      "outputs": [
        {
          "components": [
            {
              "internalType": "uint64",
              "name": "id",
              "type": "uint64"
            },
            {
              "internalType": "uint64",
              "name": "startTs",
              "type": "uint64"
            },
            {
              "internalType": "uint64",
              "name": "endTs",
              "type": "uint64"
            },
            {
              "internalType": "uint64",
              "name": "anchorBlock",
              "type": "uint64"
            },
            {
              "internalType": "bytes32",
              "name": "commitHash",
              "type": "bytes32"
            },
            {
              "internalType": "bool",
              "name": "isSealed",
              "type": "bool"
            },
            {
              "internalType": "bool",
              "name": "finalized",
              "type": "bool"
            },
            {
              "internalType": "uint256",
              "name": "totalTickets",
              "type": "uint256"
            },
            {
              "internalType": "uint256",
              "name": "pot",
              "type": "uint256"
            },
            {
              "internalType": "address",
              "name": "winner",
              "type": "address"
            },
            {
              "internalType": "uint256",
              "name": "winnerTicket",
              "type": "uint256"
            },
            {
              "internalType": "uint64",
              "name": "claimDeadline",
              "type": "uint64"
            },
            {
              "internalType": "bool",
              "name": "claimed",
              "type": "bool"
            }
          ],
          "internalType": "struct SAFILuck.Round",
          "name": "r",
          "type": "tuple"
        }
      ],
      "stateMutability": "view",
      "type": "function"
    },
    {
      "inputs": [],
      "name": "currentRoundId",
      "outputs": [
        {
          "internalType": "uint64",
          "name": "",
          "type": "uint64"
        }
      ],
      "stateMutability": "view",
      "type": "function"
    },
    {
      "inputs": [
        {
          "internalType": "uint64",
          "name": "",
          "type": "uint64"
        },
        {
          "internalType": "address",
          "name": "",
          "type": "address"
        }
      ],
      "name": "extraAmount",
      "outputs": [
        {
          "internalType": "uint256",
          "name": "",
          "type": "uint256"
        }
      ],
      "stateMutability": "view",
      "type": "function"
    },
    {
      "inputs": [
        {
          "internalType": "address",
          "name": "",
          "type": "address"
        }
      ],
      "name": "extraCarry",
      "outputs": [
        {
          "internalType": "uint256",
          "name": "",
          "type": "uint256"
        }
      ],
      "stateMutability": "view",
      "type": "function"
    },
    {
      "inputs": [],
      "name": "feeBps",
      "outputs": [
        {
          "internalType": "uint16",
          "name": "",
          "type": "uint16"
        }
      ],
      "stateMutability": "view",
      "type": "function"
    },
    {
      "inputs": [
        {
          "internalType": "bytes",
          "name": "secret",
          "type": "bytes"
        }
      ],
      "name": "finalize",
      "outputs": [],
      "stateMutability": "nonpayable",
      "type": "function"
    },
    {
      "inputs": [],
      "name": "keeper",
      "outputs": [
        {
          "internalType": "address",
          "name": "",
          "type": "address"
        }
      ],
      "stateMutability": "view",
      "type": "function"
    },
    {
      "inputs": [],
      "name": "maxFeeBps",
      "outputs": [
        {
          "internalType": "uint16",
          "name": "",
          "type": "uint16"
        }
      ],
      "stateMutability": "view",
      "type": "function"
    },
    {
      "inputs": [],
      "name": "openNext",
      "outputs": [],
      "stateMutability": "nonpayable",
      "type": "function"
    },
    {
      "inputs": [],
      "name": "owner",
      "outputs": [
        {
          "internalType": "address",
          "name": "",
          "type": "address"
        }
      ],
      "stateMutability": "view",
      "type": "function"
    },
    {
      "inputs": [],
      "name": "ownerFeeAccrued",
      "outputs": [
        {
          "internalType": "uint256",
          "name": "",
          "type": "uint256"
        }
      ],
      "stateMutability": "view",
      "type": "function"
    },
    {
      "inputs": [
        {
          "internalType": "bool",
          "name": "v",
          "type": "bool"
        }
      ],
      "name": "pauseNext",
      "outputs": [],
      "stateMutability": "nonpayable",
      "type": "function"
    },
    {
      "inputs": [],
      "name": "pauseNextRound",
      "outputs": [
        {
          "internalType": "bool",
          "name": "",
          "type": "bool"
        }
      ],
      "stateMutability": "view",
      "type": "function"
    },
    {
      "inputs": [
        {
          "internalType": "address",
          "name": "",
          "type": "address"
        }
      ],
      "name": "rewardCfg",
      "outputs": [
        {
          "internalType": "uint256",
          "name": "minT",
          "type": "uint256"
        },
        {
          "internalType": "uint256",
          "name": "maxT",
          "type": "uint256"
        },
        {
          "internalType": "bool",
          "name": "enabled",
          "type": "bool"
        }
      ],
      "stateMutability": "view",
      "type": "function"
    },
    {
      "inputs": [
        {
          "internalType": "uint256",
          "name": "",
          "type": "uint256"
        }
      ],
      "name": "rewardTokens",
      "outputs": [
        {
          "internalType": "address",
          "name": "",
          "type": "address"
        }
      ],
      "stateMutability": "view",
      "type": "function"
    },
    {
      "inputs": [],
      "name": "rewardTokensCount",
      "outputs": [
        {
          "internalType": "uint256",
          "name": "",
          "type": "uint256"
        }
      ],
      "stateMutability": "view",
      "type": "function"
    },
    {
      "inputs": [
        {
          "internalType": "uint64",
          "name": "roundId",
          "type": "uint64"
        }
      ],
      "name": "rolloverIfExpired",
      "outputs": [],
      "stateMutability": "nonpayable",
      "type": "function"
    },
    {
      "inputs": [],
      "name": "roundDurationSec",
      "outputs": [
        {
          "internalType": "uint32",
          "name": "",
          "type": "uint32"
        }
      ],
      "stateMutability": "view",
      "type": "function"
    },
    {
      "inputs": [
        {
          "internalType": "uint64",
          "name": "",
          "type": "uint64"
        }
      ],
      "name": "rounds",
      "outputs": [
        {
          "internalType": "uint64",
          "name": "id",
          "type": "uint64"
        },
        {
          "internalType": "uint64",
          "name": "startTs",
          "type": "uint64"
        },
        {
          "internalType": "uint64",
          "name": "endTs",
          "type": "uint64"
        },
        {
          "internalType": "uint64",
          "name": "anchorBlock",
          "type": "uint64"
        },
        {
          "internalType": "bytes32",
          "name": "commitHash",
          "type": "bytes32"
        },
        {
          "internalType": "bool",
          "name": "isSealed",
          "type": "bool"
        },
        {
          "internalType": "bool",
          "name": "finalized",
          "type": "bool"
        },
        {
          "internalType": "uint256",
          "name": "totalTickets",
          "type": "uint256"
        },
        {
          "internalType": "uint256",
          "name": "pot",
          "type": "uint256"
        },
        {
          "internalType": "address",
          "name": "winner",
          "type": "address"
        },
        {
          "internalType": "uint256",
          "name": "winnerTicket",
          "type": "uint256"
        },
        {
          "internalType": "uint64",
          "name": "claimDeadline",
          "type": "uint64"
        },
        {
          "internalType": "bool",
          "name": "claimed",
          "type": "bool"
        }
      ],
      "stateMutability": "view",
      "type": "function"
    },
    {
      "inputs": [],
      "name": "seal",
      "outputs": [],
      "stateMutability": "nonpayable",
      "type": "function"
    },
    {
      "inputs": [
        {
          "internalType": "uint32",
          "name": "s",
          "type": "uint32"
        }
      ],
      "name": "setClaimWindow",
      "outputs": [],
      "stateMutability": "nonpayable",
      "type": "function"
    },
    {
      "inputs": [
        {
          "internalType": "uint16",
          "name": "bps",
          "type": "uint16"
        }
      ],
      "name": "setFeeBps",
      "outputs": [],
      "stateMutability": "nonpayable",
      "type": "function"
    },
    {
      "inputs": [
        {
          "internalType": "address",
          "name": "a",
          "type": "address"
        }
      ],
      "name": "setKeeper",
      "outputs": [],
      "stateMutability": "nonpayable",
      "type": "function"
    },
    {
      "inputs": [
        {
          "internalType": "uint32",
          "name": "s",
          "type": "uint32"
        }
      ],
      "name": "setRoundDuration",
      "outputs": [],
      "stateMutability": "nonpayable",
      "type": "function"
    },
    {
      "inputs": [
        {
          "internalType": "address",
          "name": "a",
          "type": "address"
        }
      ],
      "name": "setSwapVault",
      "outputs": [],
      "stateMutability": "nonpayable",
      "type": "function"
    },
    {
      "inputs": [
        {
          "internalType": "address",
          "name": "t",
          "type": "address"
        },
        {
          "internalType": "uint256",
          "name": "minT",
          "type": "uint256"
        },
        {
          "internalType": "uint256",
          "name": "maxT",
          "type": "uint256"
        }
      ],
      "name": "setThresholdRange",
      "outputs": [],
      "stateMutability": "nonpayable",
      "type": "function"
    },
    {
      "inputs": [
        {
          "internalType": "uint256",
          "name": "p",
          "type": "uint256"
        }
      ],
      "name": "setTicketPrice",
      "outputs": [],
      "stateMutability": "nonpayable",
      "type": "function"
    },
    {
      "inputs": [
        {
          "internalType": "address",
          "name": "a",
          "type": "address"
        }
      ],
      "name": "setWNative",
      "outputs": [],
      "stateMutability": "nonpayable",
      "type": "function"
    },
    {
      "inputs": [],
      "name": "ticketPrice",
      "outputs": [
        {
          "internalType": "uint256",
          "name": "",
          "type": "uint256"
        }
      ],
      "stateMutability": "view",
      "type": "function"
    },
    {
      "inputs": [],
      "name": "ticketToken",
      "outputs": [
        {
          "internalType": "contract IERC20",
          "name": "",
          "type": "address"
        }
      ],
      "stateMutability": "view",
      "type": "function"
    },
    {
      "inputs": [
        {
          "internalType": "address",
          "name": "n",
          "type": "address"
        }
      ],
      "name": "transferOwnership",
      "outputs": [],
      "stateMutability": "nonpayable",
      "type": "function"
    },
    {
      "inputs": [],
      "name": "vault",
      "outputs": [
        {
          "internalType": "contract ISwapVault",
          "name": "",
          "type": "address"
        }
      ],
      "stateMutability": "view",
      "type": "function"
    },
    {
      "inputs": [],
      "name": "viewCarryExtras",
      "outputs": [
        {
          "internalType": "address[]",
          "name": "tokens_",
          "type": "address[]"
        },
        {
          "internalType": "uint256[]",
          "name": "amounts_",
          "type": "uint256[]"
        }
      ],
      "stateMutability": "view",
      "type": "function"
    },
    {
      "inputs": [
        {
          "internalType": "uint64",
          "name": "roundId",
          "type": "uint64"
        }
      ],
      "name": "viewRoundExtras",
      "outputs": [
        {
          "internalType": "address[]",
          "name": "tokens_",
          "type": "address[]"
        },
        {
          "internalType": "uint256[]",
          "name": "amounts_",
          "type": "uint256[]"
        }
      ],
      "stateMutability": "view",
      "type": "function"
    },
    {
      "inputs": [],
      "name": "wNative",
      "outputs": [
        {
          "internalType": "address",
          "name": "",
          "type": "address"
        }
      ],
      "stateMutability": "view",
      "type": "function"
    },
    {
      "inputs": [
        {
          "internalType": "address",
          "name": "to",
          "type": "address"
        },
        {
          "internalType": "uint256",
          "name": "amount",
          "type": "uint256"
        }
      ],
      "name": "withdrawOwnerFee",
      "outputs": [],
      "stateMutability": "nonpayable",
      "type": "function"
    },
    {
      "stateMutability": "payable",
      "type": "receive"
    }
  ],
  "bytecode": "0x6080346200014b57601f62002db238819003918201601f19168301916001600160401b0383118484101762000150578084926080946040528339810103126200014b576200004d8162000166565b602082015160408301519061ffff938483168093036200014b57606062000075910162000166565b600080546001600160a01b03199081163317909155600180556004546002805483166001600160a01b039788161790556003939093559490927cf00000012c000000000000000000000000000000000000000003e8000092909163ffff0001600160c01b038216841760101c1682116200012057600160201b600160c01b03161717600455600d80549093169116179055620001106200019f565b604051612acd9081620002e58239f35b60405162461bcd60e51b815260206004820152600360248201526242505360e81b6044820152606490fd5b600080fd5b634e487b7160e01b600052604160045260246000fd5b51906001600160a01b03821682036200014b57565b919082018092116200018957565b634e487b7160e01b600052601160045260246000fd5b60055460ff8116620002e157600881901c6001600160401b0390811660010191908083116200018957610100600160481b0319909116600892831b68ffffffffffffffff001617600581905590911c81166000818152600660205260409081902080546001600160801b031981168417429384901b6fffffffffffffffff00000000000000001690811783556004547ff1955a5325e50d0b090efe7639e58b14a162a3f934c701b376936e3d5e97aa4c966080969495909491600160801b600160c01b0391620002799160c01c63ffffffff16906200017b565b871b169260018060c01b0319161717178255600e5480620002c2575b506004825492015490604051928181168452818160401c166020850152841c1660408301526060820152a1565b620002d3600484019182546200017b565b90556000600e553862000295565b5056fe6080604052600436101561001b575b361561001957600080fd5b005b6000803560e01c8063023b1fc914611b67578063025b9c1914611a0d5780631209b1f6146119ef578063159816501461199557806324a9d853146119735780632d68efc91461194a5780633fb27b851461183b578063444132be146115355780634a52580c146114785780634fdeea34146113855780635e6e6a001461131057806364bef54f146112795780636a7c6f0f146111a5578063748747e61461112057806375f596ba146110e7578063780d9d2d146110c95780637bb7bed1146110855780638a19c8bc14610e7a5780638d1d075e14610e595780638da5cb5b14610e3257806395490c0b14610dbd5780639cbe5efd14610d93578063a0345fca14610d0f578063a1474f9014610cf1578063a820023e14610cce578063aab8ab0c14610a68578063aced166114610a3f578063b17e6a38146109a8578063bc3ac875146108d2578063bf769a3f146108ad578063c38f4d2614610698578063c987f7fc1461067a578063cc8d564e1461055a578063d251da2b14610512578063d5ed4d5a146104e9578063e48633c51461048d578063e9c99fbb14610466578063f14fcbc81461037e578063f23fb1d7146102bd578063f2fde38b14610276578063fb980cd2146102205763fbfa77cf146101f5575061000e565b3461021d578060031936011261021d57600d546040516001600160a01b039091168152602090f35b80fd5b503461021d57602036600319011261021d576060906040906001600160a01b03610248611c10565b16815260086020522080549060ff600260018301549201541690604051928352602083015215156040820152f35b503461021d57602036600319011261021d57610290611c10565b8154906001600160a01b03906102a93383851614611d33565b16906001600160601b0360a01b1617815580f35b503461021d578060031936011261021d576102e260018060a01b038254163314611d33565b60055460ff8116610350576001600160401b039060081c168152600660205260ff600260408320015460081c161561031f5761031c61295b565b80f35b60405162461bcd60e51b81526020600482015260096024820152681393d517d19253905360ba1b6044820152606490fd5b60405162461bcd60e51b815260206004820152600660248201526514105554d15160d21b6044820152606490fd5b503461021d57602036600319011261021d576004356103ab60018060a01b0360045460201c163314611e18565b6001600160401b03908160055460081c16835260066020526001604084206103dd60ff600283015460081c1615611f7b565b0191825461043b57817f1330f67e0675a8512a0afb3ccdef0cde7e286adc4f0169febd039de8c6dad2ca935560055460081c1661043560405192839283602090939291936001600160401b0360408201951681520152565b0390a180f35b60405162461bcd60e51b815260206004820152600360248201526248415360e81b6044820152606490fd5b503461021d578060031936011261021d57602063ffffffff60045460c01c16604051908152f35b503461021d57604036600319011261021d576104a7611d1d565b6024356001600160a01b03811691908290036104e557916040916001600160401b03602094168252600a845282822090825283522054604051908152f35b8280fd5b503461021d578060031936011261021d576002546040516001600160a01b039091168152602090f35b503461021d57602036600319011261021d576004358015158091036105565761054560018060a01b038354163314611d33565b60ff80196005541691161760055580f35b5080fd5b503461021d5760208060031936011261055657610575611d1d565b8291836001600160401b036009549316905b83811061062a57506105a161059b85611f35565b94611f35565b948092815b8581106105c057604051806105bc8a8a83611c55565b0390f35b6105c981611cd0565b60018060a01b0391549060031b1c16848452600a8352604084208185528352604084205490816105fe575b50506001016105a6565b956106229160019397610611838c611f67565b5261061c828c611f67565b52611f0f565b9490386105f4565b818652600a83526040862061063e82611cd0565b905460039190911b1c6001600160a01b0316875283526040862054610666575b600101610587565b93610672600191611f0f565b94905061065e565b503461021d578060031936011261021d576020600e54604051908152f35b503461021d57602080600319360112610556576106b3611d1d565b6001916106c283805414611e7c565b600283556001600160401b039081831692838652600682526040862091600283019260ff845460081c1660001461089257846007820154165b421115610863579081600460078994019161071d60ff845460401c161561283b565b01549461074a61074161271061073961ffff600454168a611eb0565b048098611ee6565b96600c54611ed9565b600c5561010061ff0019825416179055600160401b60ff60401b1982541617905561077784600e54611ed9565b600e5587825b6107e1575b5050604080516001600160401b039390931683526020830193909352507f6064e70435bd5a5a3857e56a3672e7524393f26d20ca68d8000fba2488d4d4a29190a160055460081c16146107d457805580f35b6107dc61295b565b805580f35b60095481101561085e57806107f68492611cd0565b60018060a01b0391549060031b1c16888b52600a9081855260408c20818d52855260408c2054918261082d575b505050018261077d565b8a8d52855260408c20908c5284528a6040812055600b845261085460408c20918254611ed9565b9055388080610823565b610782565b60405162461bcd60e51b815260048101839052600760248201526604e4f545f4558560cc1b6044820152606490fd5b6108a885825460801c1660045460e01c90611ed9565b6106fb565b503461021d578060031936011261021d57602061ffff60045460101c16604051908152f35b503461021d57602036600319011261021d576101a09060ff60406001600160401b0392836108fe611d1d565b168152600660205220805492600182015491600281015460038201546004830154908660018060a01b036005860154169360076006870154960154976040519a8881168c52888160401c1660208d0152888160801c1660408d015260c01c60608c015260808b0152818116151560a08b015260081c16151560c089015260e0880152610100870152610120860152610140850152811661016084015260401c161515610180820152f35b503461021d57602036600319011261021d5760043563ffffffff8116908181036104e5577f61247150cf2cee9ccb23d7959258b838aef761c09b6a9de8cb8f7da2aef51ba091602091610a0560018060a01b038654163314611d33565b610a12603c831015612871565b600480546001600160e01b031660e09290921b6001600160e01b031916919091179055604051908152a180f35b503461021d578060031936011261021d57600454604051602091821c6001600160a01b03168152f35b503461021d5760208060031936011261055657610a83611d1d565b90600191610a9383805414611e7c565b600283556001600160401b0391828216808652600682526040862093610ac260ff600287015460081c16611f7b565b60078501805495610ad960ff8860401c161561283b565b60058101546001600160a01b039390610af59085163314612871565b87164211610ca35790600160401b610b2960048a979695940154612710610b2261ffff6004541683611eb0565b0490611ee6565b9760ff60401b1916179055610b43863383600254166128bb565b87845b610b96575b604080516001600160401b0388168152336020820152908101889052899086907ff20fc6923b8057dd0c3b606483fcaa038229bb36ebc35a0040e3eaa39cf97b1790606090a1805580f35b600954811015610c9e578882610bab83611cd0565b90549060031b1c16848252600a9081875260408320818452875260408320549182610bdd575b50505050840184610b46565b86849596979899939452885260408420818552885283604081205585600f54168114600014610c8557505081808092335af13d15610c80573d610c1f81611fad565b90610c2d6040519283611df7565b815289863d92013e5b15610c4d579086809493925b905088388080610bd1565b60405162461bcd60e51b815260048101859052600b60248201526a53454e445f4e415449564560a81b6044820152606490fd5b610c36565b81979695949290610c9992945033906128bb565b610c42565b610b4b565b60405162461bcd60e51b815260048101869052600360248201526204558560ec1b6044820152606490fd5b503461021d578060031936011261021d57602060ff600554166040519015158152f35b503461021d578060031936011261021d576020600c54604051908152f35b503461021d57602036600319011261021d576004356001600160401b038082116104e557366023830112156104e55781600401359081116104e55736602482840101116104e5576024610d8c92610d7460018060a01b0360045460201c163314611e18565b610d816001805414611e7c565b60026001550161201f565b6001805580f35b503461021d578060031936011261021d5760206001600160401b0360055460081c16604051908152f35b503461021d57602036600319011261021d577f2331337b101749292599f3371a5a1be28971bc5f4b1cef3f772850177339fcf36020610dfa611c10565b83546001600160a01b039190610e139083163314611d33565b16806001600160601b0360a01b600f541617600f55604051908152a180f35b503461021d578060031936011261021d57546040516001600160a01b039091168152602090f35b503461021d578060031936011261021d57602060045460e01c604051908152f35b503461021d578060031936011261021d576040816101a0926101808351610ea081611dc8565b82815282602082015282858201528260608201528260808201528260a08201528260c08201528260e08201528261010082015282610120820152826101408201528261016082015201526001600160401b0360055460081c168152600660205220610180604051610f1081611dc8565b60ff60078454946001600160401b03861684526001600160401b038660401c1660208501526001600160401b038660801c1660408501528560c01c606085015260018101546080850152826002820154818116151560a087015260081c16151560c0850152600381015460e0850152600481015461010085015260018060a01b03600582015416610120850152600681015461014085015201546001600160401b03811661016084015260401c161515828201526001600160401b03604051931683526001600160401b0360208201511660208401526001600160401b0360408201511660408401526001600160401b0360608201511660608401526080810151608084015260a0810151151560a084015260c0810151151560c084015260e081015160e084015261010081015161010084015260018060a01b03610120820151166101208401526101408101516101408401526001600160401b036101608201511661016084015201511515610180820152f35b503461021d57602036600319011261021d576004359060095482101561021d5760206110b083611cd0565b905460405160039290921b1c6001600160a01b03168152f35b503461021d578060031936011261021d576020600954604051908152f35b503461021d57602036600319011261021d576020906040906001600160a01b0361110f611c10565b168152600b83522054604051908152f35b503461021d57602036600319011261021d577fdc3dba1d64dd67c0dc8b12621edd0c6ca4303a9073c3a8fcac38115e73d67b6b602061115d611c10565b83546001600160a01b03906111759082163314611d33565b60048054640100000000600160c01b03191683851b640100000000600160c01b031617905560405191168152a180f35b503461021d576111b436611c2b565b9160018060a01b036111ca818654163314611d33565b8116808552600860205260ff6002604087200154161561124e5783610435916112167f29db164eea8b969241d696253a5baff97892ca1602b23671a8440ea60e430bc396861115611d65565b8652600860205280600160408820868155015560405193849384604091949392606082019560018060a01b0316825260208201520152565b60405162461bcd60e51b8152602060048201526003602482015262544f4b60e81b6044820152606490fd5b503461021d57604036600319011261021d57611293611c10565b81546001600160a01b0391602435916112af9084163314611d33565b6112bc6001805414611e7c565b6002600155600c54928284106112e5576112d983610d8c95611ee6565b600c55600254166128bb565b60405162461bcd60e51b815260206004820152600360248201526246454560e81b6044820152606490fd5b503461021d57602036600319011261021d577fe7ae49f883c825b05681b3e00e8be6fdea9ed2a8a45e4c6ecb9390fc44cce615602061134d611c10565b83546001600160a01b0391906113669083163314611d33565b16806001600160601b0360a01b600d541617600d55604051908152a180f35b503461021d578060031936011261021d578081600954905b81811061143057506113b76113b183611f35565b92611f35565b9280805b8381106113d157604051806105bc888883611c55565b6113da81611cd0565b905460039190911b1c6001600160a01b0316808352600b6020526040832054908161140a575b50506001016113bb565b93611428916001939561141d838a611f67565b5261061c828a611f67565b929038611400565b61143981611cd0565b905460039190911b1c6001600160a01b03168452600b6020526040842054611464575b60010161139d565b91611470600191611f0f565b92905061145c565b503461021d57602036600319011261021d5760043563ffffffff8116908181036104e5576114b060018060a01b038454163314611d33565b603c821061150a576004805463ffffffff60c01b191660c09290921b63ffffffff60c01b169190911790556040519081527fd130db1a923b73d1b2e61d7dd8f80b6711952e54dca2c9869971e6d49a1ec98890602090a180f35b60405162461bcd60e51b8152602060048201526003602482015262222aa960e91b6044820152606490fd5b503461021d576020806003193601126105565760043563ffffffff81168091036104e55760019161156883805414611e7c565b600283556001600160401b03918260055460081c16855260068252604085209280845460801c164210156118105781156117e5576115a860035483611eb0565b9260018060a01b03918260025416956040516323b872dd60e01b815233600482015283816064818d60249c8d30908401528c60448401525af19081156117da578a916117ad575b50156117745780600460039201611607888254611ed9565b905501611615858254611ed9565b90558060055460081c16928389526007835260408920805490811560001461174357505088935b89526007835260408920906116518686611ed9565b60405190604082018281108682111761173057604052815284810192338452805490600160401b821015611730579061168e918c82018155611ef3565b91909161171d57908a91518155019151166001600160601b0360a01b82541617905560055460081c169486830180931161170b57509160a093917fe5cb760dae1f2104d4ae83f2250e930aa48172fd500b81acc7e7128a7559f14095936040519485523390850152604084015260608301526080820152a1805580f35b634e487b7160e01b8852601160045287fd5b634e487b7160e01b8c5260048c9052898cfd5b634e487b7160e01b8d5260416004528a8dfd5b6000198201918211611761579061175991611ef3565b50549361163c565b634e487b7160e01b8b526011600452888bfd5b60405162461bcd60e51b815260048101849052601281890152711514905394d1915497d19493d357d190525360721b6044820152606490fd5b6117cd9150843d86116117d3575b6117c58183611df7565b8101906128a3565b386115ef565b503d6117bb565b6040513d8c823e3d90fd5b60405162461bcd60e51b815260048101849052600360248201526210535560ea1b6044820152606490fd5b60405162461bcd60e51b815260048101849052600360248201526211539160ea1b6044820152606490fd5b503461021d578060031936011261021d5761186460018060a01b0360045460201c163314611e18565b6001600160401b038060055460081c16825260066020526040822061189182825460801c16421015611e4a565b600281019182549260ff841661191c5760ff1990931660011790925580546001600160c01b031643831660c01b6001600160c01b0319161781557fe0cbe0d886c38a3fbf0c99e35105c2be16a7a69ee8c3cf17befc55815930ba6f9160055491546040805160089490941c929092166001600160401b0316835260c01c602083015281908101610435565b60405162461bcd60e51b815260206004820152600660248201526514d15053115160d21b6044820152606490fd5b503461021d578060031936011261021d57600f546040516001600160a01b039091168152602090f35b503461021d578060031936011261021d57602061ffff60045416604051908152f35b503461021d57602036600319011261021d577f34388f2433e2a2e6d6f978efe10bb2784b04bec67ff0eaa768c332c248da5d1d60206004356119e160018060a01b038554163314611d33565b80600355604051908152a180f35b503461021d578060031936011261021d576020600354604051908152f35b503461021d57611a1c36611c2b565b929160018060a01b03611a33818554163314611d33565b611a3f85841115611d65565b80821690818552600860205260ff60026040872001541615611af0575b507f1967f04d043dcde420379c946155c044c22bb82e58a86f811326133e4f365e519394610435916002604051611a9281611d97565b868152602081018481526040820193600185528a52600860205260408a2091518255516001820155019051151560ff8019835416911617905560405193849384604091949392606082019560018060a01b0316825260208201520152565b600954600160401b811015611b5357917f1967f04d043dcde420379c946155c044c22bb82e58a86f811326133e4f365e51959691611b378460016104359601600955611cd0565b819291549060031b9184831b921b191617905591509493611a5c565b634e487b7160e01b86526041600452602486fd5b503461021d57602036600319011261021d5760043561ffff8082168092036104e557611b9d60018060a01b038454163314611d33565b600454908160101c168211611be55761ffff191681176004556040519081527faab062e3faf62b6c9a0f8e62af66e0310e27127a8c871a67be7dd4d93de6da5390602090a180f35b60405162461bcd60e51b815260206004820152600360248201526242505360e81b6044820152606490fd5b600435906001600160a01b0382168203611c2657565b600080fd5b6060906003190112611c26576004356001600160a01b0381168103611c2657906024359060443590565b6040810190604081528251809252606081019160208094019060005b818110611cb3575050508281830391015281808451928381520193019160005b828110611c9f575050505090565b835185529381019392810192600101611c91565b82516001600160a01b031685529385019391850191600101611c71565b600954811015611d075760096000527f6e1540171b6c0c960b71a7020d9f60077f6af931a8bbf590da0223dacf75c7af0190600090565b634e487b7160e01b600052603260045260246000fd5b600435906001600160401b0382168203611c2657565b15611d3a57565b60405162461bcd60e51b815260206004820152600360248201526227aba760e91b6044820152606490fd5b15611d6c57565b60405162461bcd60e51b8152602060048201526003602482015262524e4760e81b6044820152606490fd5b606081019081106001600160401b03821117611db257604052565b634e487b7160e01b600052604160045260246000fd5b6101a081019081106001600160401b03821117611db257604052565b6001600160401b038111611db257604052565b90601f801991011681019081106001600160401b03821117611db257604052565b15611e1f57565b606460405162461bcd60e51b815260206004820152600460248201526304b4545560e41b6044820152fd5b15611e5157565b606460405162461bcd60e51b815260206004820152600460248201526354494d4560e01b6044820152fd5b15611e8357565b60405162461bcd60e51b8152602060048201526005602482015264149151539560da1b6044820152606490fd5b81810292918115918404141715611ec357565b634e487b7160e01b600052601160045260246000fd5b91908201809211611ec357565b91908203918211611ec357565b8054821015611d075760005260206000209060011b0190600090565b6000198114611ec35760010190565b6001600160401b038111611db25760051b60200190565b90611f3f82611f1e565b611f4c6040519182611df7565b8281528092611f5d601f1991611f1e565b0190602036910137565b8051821015611d075760209160051b010190565b15611f8257565b60405162461bcd60e51b81526020600482015260036024820152622324a760e91b6044820152606490fd5b6001600160401b038111611db257601f01601f191660200190565b929192611fd482611fad565b91611fe26040519384611df7565b829481845281830111611c26578281602093846000960137010152565b8115612009570690565b634e487b7160e01b600052601260045260246000fd5b91906001600160401b0360055460081c1660005260066020526040600020906120576001600160401b03835460801c16421015611e4a565b600282015461206c60ff8260081c1615611f7b565b60ff8116156127be575b5060018201805415612762575b61208e368387611fc8565b602081519101209054036127345760038201541561266a578154938460c01c40908115612651575b9161211860c061212294836001600160401b0360038901549a60405196879460208601998a52608060408701528160a0870152868601376000858486010152166060830152896080830152601f801991011681010360a0810184520182611df7565b5190209384611fff565b600181018111611ec3576001600160401b0360055460081c1660005260076020526040600020906000908254805b80841061261557508210156125eb5761218c6080927fe4f2d97303c7c3eb14361982389c01503cb369c254e83c14a3cb0b3e97fab2d894611ef3565b506001808060a01b03910154169060058501826001600160601b0360a01b82541617905560018101600686015560016004860154916001600160401b036121f26004546121e661074161271061073961ffff85168a611eb0565b600c5560e01c42611ed9565b1660078801906001600160401b031982541617905561010061ff00196002890154161760028801556001600160401b038754169360405194855260208501520160408301526060820152a160005b6009548110156125dd5761225381611cd0565b60018060a01b0391549060031b1c169081600052600860205260406000206040519061227e82611d97565b80549081835260ff600260018301549283602087015201541615801560408501526125d157106125c7576001600160401b03845416604051908760208301528460408301526060820152606081528060808101106001600160401b03608083011117611db257612304816080602093016040528281519101209280519283910151611ee6565b600181018111611ec35761232592600161231f920190611fff565b90611ed9565b82600052600b6020526040600020546024602060018060a01b03600d54166040519283809263d88ede5d60e01b82528960048301525afa80156124da578391600091612590575b506123779083611ed9565b101561238b575b5050600191505b01612240565b6123a89082811061258a5782905b818061256b575b505082611ee6565b80612441575b506001927f0280d7766c86ba442ffb1dd10baa97efbf57eacf81135380be173b186496a0b6916001600160401b03865416600052600a602052604060002082600052602052806040600020556124376001600160401b0387541691604051938493846040919493926001600160401b03606083019616825260018060a01b031660208201520152565b0390a1388061237e565b600f549093906001600160a01b031681036124e657600d546001600160a01b031693843b15611c2657600094604486926040519788938492633409d55160e11b845260048401523060248401525af19182156124da576001947f0280d7766c86ba442ffb1dd10baa97efbf57eacf81135380be173b186496a0b6936124cb575b505b9150926123ae565b6124d490611de4565b386124c1565b6040513d6000823e3d90fd5b600d546001600160a01b031693843b15611c265760009460648692604051978893849262e4a3b160e31b845287600485015260248401523060448401525af19182156124da576001947f0280d7766c86ba442ffb1dd10baa97efbf57eacf81135380be173b186496a0b69361255c575b506124c3565b61256590611de4565b38612556565b61257491611ee6565b85600052600b60205260406000205538816123a0565b80612399565b9150506020813d6020116125bf575b816125ac60209383611df7565b81010312611c265751829061237761236c565b3d915061259f565b5060019150612385565b50505060019150612385565b505090506125e961295b565b565b60405162461bcd60e51b8152602060048201526002602482015261272360f11b6044820152606490fd5b61261f8185611ed9565b60011c9061262d8287611ef3565b5054600185011161263e5750612150565b935060018101809111611ec35792612150565b905043600019810111611ec357436000190140906120b6565b507f6064e70435bd5a5a3857e56a3672e7524393f26d20ca68d8000fba2488d4d4a29192506001600160401b036126ca600483016127106126b3825461ffff6004541690611eb0565b04906126c182600c54611ed9565b600c5554611ee6565b9161010061ff001960028301541617600282015560078101600160401b60ff60401b198254161790556126ff83600e54611ed9565b600e55541661272960405192839283602090939291936001600160401b0360408201951681520152565b0390a16125e961295b565b60405162461bcd60e51b815260206004820152600660248201526514915591505360d21b6044820152606490fd5b7f1330f67e0675a8512a0afb3ccdef0cde7e286adc4f0169febd039de8c6dad2ca61278e368488611fc8565b80516020918201208084556005546040805160089290921c6001600160401b0316825292810191909152a1612083565b60ff1916600117600283015581546001600160c01b03164360c01b6001600160c01b03191617825560055482546040805160089390931c6001600160401b0316835260c09190911c60208301527fe0cbe0d886c38a3fbf0c99e35105c2be16a7a69ee8c3cf17befc55815930ba6f9190819081010390a138612076565b1561284257565b60405162461bcd60e51b815260206004820152600760248201526610d3105253515160ca1b6044820152606490fd5b1561287857565b60405162461bcd60e51b81526020600482015260036024820152622ba4a760e91b6044820152606490fd5b90816020910312611c2657518015158103611c265790565b60405163a9059cbb60e01b81526001600160a01b039283166004820152602481019390935260209183916044918391600091165af19081156124da5760009161293c575b501561290757565b60405162461bcd60e51b815260206004820152600d60248201526c1514905394d1915497d1905253609a1b6044820152606490fd5b612955915060203d6020116117d3576117c58183611df7565b386128ff565b60055460ff8116612a94576001600160401b03906001828260081c160191808311611ec3578060809268ffffffffffffffff007ff1955a5325e50d0b090efe7639e58b14a162a3f934c701b376936e3d5e97aa4c9560081b169068ffffffffffffffff001916178060055560081c16908160005260066020526040600020918254906fffffffffffffffff00000000000000004260401b169081816fffffffffffffffffffffffffffffffff198516171785556001600160401b03861b612a2d63ffffffff60045460c01c1642611ed9565b871b16926001600160401b0360c01b161717178255600e5480612a78575b506004825492015490604051928181168452818160401c166020850152841c1660408301526060820152a1565b612a8760048401918254611ed9565b90556000600e5538612a4b565b5056fea2646970667358221220898b7a1289610ce29dd0aec4fcd8b0f68f2e637bc88eeb0239c49d139a7b588464736f6c63430008180033",
  "linkReferences": {},
  "deployedLinkReferences": {}
}